:020000040800F2
:10000000B006002045010008B91600086315000875
:10001000B5160008D5010008A51A00080000000068
:10002000000000000000000000000000E9160008C9
:10003000D901000800000000BD160008EB160008FA
:100040005F0100085F0100085F0100085F01000810
:100050005F0100085F0100085F0100085F01000800
:100060005F0100085F0100085F0100085F010008F0
:100070005F0100085F0100085F0100085F010008E0
:100080005F0100085F0100085F0100085F010008D0
:100090005F0100085F0100085F0100085F010008C0
:1000A0005F0100085F0100085F0100085F010008B0
:1000B0005F0100085F0100085F0100085F010008A0
:1000C0005F0100085F0100085F0100085F01000890
:1000D0005F0100085F0100085F010008951A000831
:1000E0005F0100085F0100085F0100085F01000870
:1000F0005F0100085F0100085F0100085F01000860
:100100005F0100085F0100085F0100085F0100084F
:100110005F0100085F0100085F0100085F0100083F
:100120005F0100085F0100085F0100085F0100082F
:10013000DFF80CD000F03CF800480047111C000824
:10014000B00600200648804706480047FEE7FEE765
:10015000FEE7FEE7FEE7FEE7FEE7FEE7FEE7FEE777
:10016000591700083101000840EA01039B0703D03A
:1001700009E008C9121F08C0042AFAD203E011F8E6
:10018000013B00F8013B521EF9D27047D2B201E0A8
:1001900000F8012B491EFBD270470022F6E710B58C
:1001A00013460A4604461946FFF7F0FF204610BDE5
:1001B000064C074D06E0E06840F0010394E80700B4
:1001C00098471034AC42F6D3FFF7B6FFD41C0008B2
:1001D000F41C000800BFFEE7704772B600BFFEE7E0
:1001E0000146002291F82100022808D004208863EB
:1001F00000BF002081F8200000BF01207047086880
:10020000006820F00E000B6818600868006820F095
:1002100001000B68186091F8403001209840CB6BCA
:100220005860012081F8210000BF002081F82000E3
:1002300000BF1046E2E7000070B50446002594F8C0
:100240002100022803D00420A0630125C1E020681A
:10025000006820F00E00216808602068006820F027
:100260000100216808605C492068884252D95A49D7
:1002700078392068884201D1012047E05649643925
:100280002068884201D1102040E05349503920684D
:10029000884201D1801539E04F493C3920688842B5
:1002A00001D1801432E04C4928392068884202D1BB
:1002B0004FF480302AE0484914392068884202D13E
:1002C0004FF4801022E044492068884201D1400464
:1002D0001CE042492068884201D1012016E03F49D4
:1002E00014312068884201D110200FE03B492831A9
:1002F0002068884201D1801508E038493C312068E7
:10030000884201D1801401E04FF480303349091F45
:10031000086051E0304978392068884201D10120D5
:1003200047E02D4964392068884201D1102040E01F
:10033000294950392068884201D1801539E0264981
:100340003C392068884201D1801432E022492839A2
:100350002068884202D14FF480302AE01E491439C7
:100360002068884202D14FF4801022E01A492068A8
:10037000884201D140041CE018492068884201D11C
:10038000012016E0154914312068884201D110205F
:100390000FE0124928312068884201D1801508E019
:1003A0000E493C312068884201D1801401E04FF4AD
:1003B0008030094980394860012084F8210000BF5D
:1003C000002084F8200000BF606B10B12046616BF4
:1003D0008847284670BD00008000024008040240A3
:1003E0002DE9F847024600239C467BE14FF00108C7
:1003F00008FA03F4D1F8008008EA0400A0427DD195
:10040000DFF8F4A2D1F80480A8EB0A09D0453AD06D
:1004100014DCB8F1030F50D009DCB8F1000F31D073
:10042000B8F1010F1CD0B8F1020F49D120E0B8F1AA
:10043000110F18D0B8F1120F42D11EE0B9F5881F84
:1004400025D006DCB9F5803F20D0B9F5801F37D123
:100450001AE0B9F5001F18D0B9F5041F30D117E024
:10046000D1F80CC02DE0D1F80C8008F1040C28E084
:10047000D1F80C8008F1080C23E0D1F80C8008F1C9
:100480000C0C1EE000BF00BF00BF00BF00BF00BFDC
:10049000D1F80880B8F1000F02D14FF0040C0BE046
:1004A000D1F80880B8F1010F03D14FF0080C1461A6
:1004B00002E04FF0080C546103E04FF0000C00E044
:1004C00000BF00BFFF2801D8904601E002F10408F8
:1004D0004646FF2802D84FEA830803E0A3F1080844
:1004E0004FEA88084746D6F800804FF00F0909FA0E
:1004F00007F928EA09080CFA07F900E07AE048EA67
:100500000908C6F80080D1F8048008F08058B8F1D6
:10051000805F6FD100BFDFF8E481D8F8188048F021
:100520000108DFF8D891C9F81880C846D8F81880B3
:1005300008F00108CDF8008000BF00BF4FEAB938CD
:100540004FEA930958F829504FEA83784FEA18790F
:100550004FF00F0808FA09F825EA0805DFF8A0812E
:10056000424502D14FF0000824E0DFF8988142456F
:1005700002D14FF001081DE0DFF88C81424502D125
:100580004FF0020816E0DFF88481424502D14FF0B7
:1005900003080FE0DFF87881424502D14FF00408EC
:1005A00008E0DFF87081424502D14FF0050801E014
:1005B0004FF006084FEA83794FEA197908FA09F8EB
:1005C00048EA0505DFF850814FEA930948F82950B9
:1005D000D1F8048008F48018B8F5801F0BD1DFF83B
:1005E0003C81D8F8008048EA0008DFF83091C9F86B
:1005F00000800AE075E0DFF82481D8F8008028EA5E
:100600000008DFF81891C9F80080D1F8048008F4D8
:100610000018B8F5001F0ED1DFF8008108F10408BA
:10062000D8F8008048EA0008DFF8F09009F10409E2
:10063000C9F800800DE0DFF8E48008F10408D8F87C
:10064000008028EA0008DFF8D49009F10409C9F80D
:100650000080D1F8048008F40038B8F5003F0ED1CE
:10066000DFF8B880A8F10408D8F8008048EA00084C
:10067000DFF8A890A9F10409C9F800800DE0DFF8BF
:100680009C80A8F10408D8F8008028EA0008DFF868
:100690008C90A9F10409C9F80080D1F8048008F40D
:1006A0008038B8F5803F0ED1DFF87080A8F10808D7
:1006B000D8F8008048EA0008DFF86090A9F108093E
:1006C000C9F800800DE0DFF85480A8F10808D8F8D8
:1006D000008028EA0008DFF84490A9F10809C9F869
:1006E00000805B1CD1F8008028FA03F8B8F1000FF5
:1006F0007FF47CAEBDE8F8870000111000100240C6
:1007000000080140000C01400010014000140140AD
:1007100000180140001C014008000140080401408D
:1007200010B5C26821EA020302EA010443EA044365
:10073000036110BD0AB1016101E00B040361704760
:10074000014800687047000004000020034800686A
:1007500003490978084401490860704704000020F3
:100760000C00002010B50848006840F01000064951
:100770000860032000F0A8F80F2000F007F800F050
:100780002BF8002010BD00000020024070B5044688
:100790000E4800784FF47A71B1FBF0F00C4909680B
:1007A000B1FBF0F5284600F0F9FB08B1012070BD5F
:1007B000102C07D200222146501E00F047F80548B1
:1007C000046001E00120F2E70020F0E70C000020C7
:1007D000100000200800002008B500BF1148806903
:1007E00040F001000F4988610846806900F001006F
:1007F000009000BF00BF00BF0846C06940F08050B5
:10080000C8610846C06900F08050009000BF00BF7A
:1008100000BF0549486820F0E06040F00070486083
:1008200000BF08BD0010024000000140014608461C
:10083000002809DB00F01F0301229A4043099B00B6
:1008400003F1E023C3F8002100BF70472DE9F05FFA
:1008500080460D461646002701F036F90746394610
:100860002A46334601F00700C0F1070ABAF1040F27
:1008700002D94FF0040A01E0C0F1070AD14600F1A5
:10088000040ABAF1070F02D24FF0000A01E0A0F10A
:10089000030AD4464FF0010A0AFA09FAAAF1010A3A
:1008A0000AEA020A0AFA0CFA4FF0010B0BFA0CFBE7
:1008B000ABF1010B0BEA030B4AEA0B04214640465D
:1008C00001F00AF9BDE8F09F00BF00F00702064BF7
:1008D00019684FF6FF031940044B0B4343EA02210A
:1008E000014B196000BF70470CED00E00000FA05F5
:1008F00070B504460D460CB9012070BD5A48006819
:1009000000F00700A8420ED25748006820F0070008
:100910002843554908600846006800F00700A842CF
:1009200001D00120E9E7207800F0020002281DD163
:10093000207800F00400042805D14C48406840F4B9
:10094000E0604A494860207800F00800082805D196
:100950004648406840F46050444948604348406815
:1009600020F0F000A168084340494860207800F07A
:10097000010078B36068012806D13C48006800F4A3
:10098000003090B90120B8E76068022806D13748E6
:10099000006800F0007040B90120AEE733480068FD
:1009A00000F0020008B90120A7E73048406820F0B5
:1009B0000300616808432D494860FFF7C1FE064601
:1009C00009E0FFF7BDFE801B41F28831884202D961
:1009D000032092E707E02548406800F00C006168BA
:1009E000B0EB810FEDD12048006800F00700A8426D
:1009F0000ED91D48006820F0070028431A490860F6
:100A00000846006800F00700A84201D0012074E702
:100A1000207800F00400042807D11448406820F42E
:100A2000E060E168084311494860207800F0080060
:100A3000082808D10D48406820F46050216940EA38
:100A4000C1000A49486000F03FF808494968C1F30D
:100A50000311074A515CC84006490860064800680F
:100A6000FFF794FE002048E70020024000100240FB
:100A7000BA1C00081000002008000020014800688F
:100A8000704700001000002000B5FFF7F7FF044991
:100A90004968C1F30221034A515CC84000BD00000F
:100AA00000100240CA1C000800B5FFF7E7FF044928
:100AB0004968C1F3C221034A515CC84000BD00002F
:100AC00000100240CA1C000870B50021002200245A
:100AD00000230020134D696801F00C05F5B1042DC9
:100AE00002D0082D19D101E00F4819E00F4DC1F3D4
:100AF0008346AB5D01F4803555B10A4D6D68C5F391
:100B000040450B4E725D084D5D43B5FBF2F402E0CB
:100B1000084D03FB05F4204602E000BF024800BF79
:100B200000BF70BD0010024000127A00A81C00082F
:100B3000B81C000800093D00F8B504460CB90120B6
:100B4000F8BD207800F00100002878D0F84840680F
:100B500000F00C0004280CD0F548406800F00C00B0
:100B6000082811D1F248406800F48030B0F5803F89
:100B70000AD1EF48006800F4003000285FD06068B8
:100B800000285CD10120DBE700BF6068B0F5803F42
:100B900006D1E748006840F48030E549086028E065
:100BA000606858B9E248006820F48030E049086085
:100BB0000846006820F4802008601AE06068B0F5FC
:100BC000A02F0BD1DA48006840F48020D849086093
:100BD0000846006840F4803008600AE0D4480068A5
:100BE00020F48030D24908600846006820F4802054
:100BF000086000BF606888B1FFF7A2FD054606E007
:100C0000FFF79EFD401B642801D9032098E7C848E0
:100C1000006800F400300028F2D010E0FFF790FDEB
:100C2000054606E0FFF78CFD401B642801D9032030
:100C300086E7BF48006800F400300028F2D1207831
:100C400000F00200022857D1B948406800F00C00BB
:100C500050B1B748406800F00C00082818D1B448DB
:100C6000406800F4803098B9B148006800F0020094
:100C700020B12069012801D0012061E7AC4800685B
:100C800020F0F800616940EAC100A949086033E03A
:100C90002069E8B10120A7490860FFF751FD05462A
:100CA00006E0FFF74DFD401B022801D9032047E76E
:100CB0009F48006800F002000028F2D09C480068BD
:100CC00020F0F800616940EAC1009949086013E02A
:100CD000002098490860FFF733FD054606E0FFF75E
:100CE0002FFD401B022801D9032029E79048006806
:100CF00000F002000028F2D1207800F00800082857
:100D00002DD1A069B8B101208B490860FFF718FD0B
:100D1000054606E0FFF714FD401B022801D9032019
:100D20000EE78348406A00F002000028F2D001205C
:100D300000F0C6FC13E000207F490860FFF700FDCB
:100D4000054606E0FFF7FCFC401B022801D9032002
:100D5000F6E67748406A00F002000028F2D12078D9
:100D600000F00400042873D100277148C06900F026
:100D7000805070B900BF6E48C06940F080506C4927
:100D8000C8610846C06900F08050009000BF00BFF5
:100D900001276A48006800F48070B0B967480068AD
:100DA00040F4807065490860FFF7CAFC054606E01C
:100DB000FFF7C6FC401B642801D90320C0E65F484A
:100DC000006800F480700028F2D000BFE0680128BD
:100DD00006D15748006A40F001005549086227E0F3
:100DE000E06858B95248006A20F001005049086292
:100DF0000846006A20F00400086219E0E06805284F
:100E00000BD14B48006A40F004004949086208468B
:100E1000006A40F0010008620AE04548006A20F0DC
:100E20000100434908620846006A20F00400086295
:100E300000BFE068A0B1FFF783FC054609E0FFF7BB
:100E40007FFC401B41F28831884202D9032077E6BB
:100E500022E03748006A00F002000028EFD012E0DC
:100E6000FFF76EFC054608E0FFF76AFC401B41F205
:100E70008831884201D9032062E62D48006A00F0DB
:100E800002000028F0D1012F05D12948C06920F0C7
:100E900080502749C86100BFE069C8B32448406852
:100EA00000F00C00082860D0E069022848D100203A
:100EB00020490866FFF744FC054606E0FFF740FCC2
:100EC000401B022801D903203AE61948006800F0C7
:100ED00000700028F2D1206AB0F5803F07D1144895
:100EE000406820F40030A168084311494860D4E903
:100EF000080108430E49496821F4741108430C495C
:100F0000486001200B490866FFF71AFC054607E018
:100F10003DE0FFF715FC401B022801D903200FE636
:100F20000348006800F000700028F2D02FE00000B5
:100F30000010024000004242800442420070004023
:100F4000002014490866FFF7FBFB054606E0FFF7A3
:100F5000F7FB401B022801D90320F1E50E48006889
:100F600000F000700028F2D111E0E069012800D102
:100F7000E6E50948466806F48031206A814204D1DA
:100F800006F47011606A814201D00120D8E500208A
:100F9000D6E50000000042420010024070B5044651
:100FA0002546681EB0F1807F01D301200FE0681E46
:100FB0004FF0E02148610F214FF0FF3000F08CFD31
:100FC00000204FF0E021886107200861002070BDFB
:100FD0007047704710B504464FF480721D4901F206
:100FE0000110FFF7C1F81B48401E90F80101194994
:100FF000491E81F80202002081F80101012081F8D8
:10100000030201021348FFF7C8F84FF48071124839
:10101000FFF786FB0F48401E90F8011190F8010180
:10102000401C0C4A521E82F80101501C08440B4916
:101030008862104690F8012190F80101401C054B90
:101040005B1E83F80101581C11180122034800F0AF
:101050005BFA10BD19000020000801406402002066
:101060002DE9F84F0446206805682068C6682068A6
:1010700047694FF00009CA4605F00F09B9F1000FA2
:101080000AD105F0200038B106F0200020B120463A
:1010900000F0B3FBBDE8F88FB9F1000F7BD007F08B
:1010A000010018B906F49070002874D005F0010012
:1010B00030B106F4807018B1606C40F001006064DB
:1010C00005F0040030B107F0010018B1606C40F089
:1010D0000200606405F0020030B107F0010018B1B1
:1010E000606C40F00400606405F0080048B106F050
:1010F000200010B907F0010018B1606C40F0080042
:101100006064606C002845D005F0200028B106F02E
:10111000200010B1204600F070FB20684069C0F349
:10112000801A606C00F0080010B9BAF1000F2CD0E2
:10113000204600F01CFB2068406900F0400000B32E
:1011400000BF00BF2168143151E8001F21F04000AA
:101150002168143141E80002002AF3D100BFE06B9E
:1011600050B18848E16B4863E06BFFF765F888B1E0
:10117000E06B416B88470DE02046FFF72AFF09E04E
:1011800009E02046FFF725FF04E02046FFF721FF96
:10119000002060647EE7206B012877D105F0100005
:1011A000002873D006F010000028FAD000BF0020FD
:1011B000009020680068009020684068009000BFA0
:1011C00000BF2068406900F0400000285FD0E06B5D
:1011D000006840681FFA80F8B8F1000F55D0A08D64
:1011E000404552DDA4F82E80E06B8069202843D072
:1011F00000BF00BF21680C3151E8001F21F480704E
:1012000021680C3141E80002002AF3D100BF00BF81
:1012100000BF2168143151E8001F21F0010021684E
:10122000143141E80002002AF3D100BF00BF00BF23
:101230002168143151E8001F21F040002168143169
:1012400041E80002002AF3D100BF202084F84200C8
:101250000020206300BF00BF21680C3151E8001F4F
:1012600021F0100021680C3141E80002002AF3D17E
:1012700000BFE06BFEF7B4FF02206063A08DE28D3B
:10128000801A81B22046FFF7A3FE03E742E0A08D5B
:10129000E18D401A1FFA80F8E08DD0B3B8F1000F4D
:1012A00037D000BF00BF21680C3151E8001F21F486
:1012B000907021680C3141E80002002AF3D100BF90
:1012C00000BF00BF2168143151E8001F21F0010068
:1012D0002168143141E80002002AF3D100BF202028
:1012E00084F842000020206300BF00BF21680C3159
:1012F00051E8001F21F0100021680C3141E8000284
:10130000002AF3D100BF0220606341462046FFF768
:101310005FFEBFE605F01000E8B106F01000D0B1A6
:101320002068C06820F010002168C8602046FFF7E0
:1013300051FE00BF002000902068006800902068E7
:101340004068009000BF00BF2068C06840F01000F7
:101350002168C8609EE605F0800030B106F080008C
:1013600018B1204600F066FB94E605F0400030B16D
:1013700006F0400018B1204600F02FFA8AE600BFC0
:1013800088E600005B17000810B504460CB9012080
:1013900010BDA06900B100E000BF94F8410028B979
:1013A000002084F84000204600F02AF8242084F829
:1013B00041002068C06820F400502168C8602046C1
:1013C00000F09AFA2068006920F4904021680861D2
:1013D0002068406920F02A00216848612068C068C0
:1013E00040F400502168C86000206064202084F828
:1013F000410084F842000020606300BFC8E700009D
:1014000010B586B004460020029003900490059029
:101410003849206888422FD100BF3748806940F49E
:101420008040354988610846806900F48040019019
:1014300000BF00BF00BF0846806940F0040088611B
:101440000846806900F00400019000BF00BF481505
:101450000290022003900320059002A92748FEF77E
:10146000BFFF4FF48060029000200390049002A917
:101470002248FEF7B5FF3BE021492068884237D17A
:1014800000BF1D48C06940F480201B49C861084660
:10149000C06900F48020019000BF00BF00BF084673
:1014A000806940F0080088610846806900F0080003
:1014B000019000BF00BF0815029002200390032096
:1014C000059002A90F48FEF78BFF4FF400600290D1
:1014D000002003900120049002A90A48FEF780FF33
:1014E000002211462720FFF7B1F92720FFF79EF9C8
:1014F00006B010BD00380140001002400008014055
:1015000000480040000C014070B504460D461646E8
:1015100094F8420020280BD105B10EB9012070BD0E
:101520000020206332462946204600F063FAF6E7A1
:101530000220F4E710B50446074890F8012190F81E
:101540000101401C044B83F80101581C11180122B1
:101550000248FFF7D9FF10BD1800002064020020E8
:10156000704700BFFEE7000000B585B00020019085
:1015700002900390049000BF1D48806940F0200055
:101580001B4988610846806900F02000009000BF78
:1015900000BF00BF0846806940F008008861084627
:1015A000806900F00800009000BF00BF00BF08463F
:1015B000806940F0040088610846806900F00400FA
:1015C000009000BF00BF002289150A48FFF7B2F85B
:1015D0004FF48070019001200290002003900220BF
:1015E000049001A90348FEF7FBFE05B000BD000012
:1015F000001002400008014010B50B480B4908607C
:101600004FF4E1304860002108488160C160016109
:101610000C21416100218161C161FFF7B5FE08B174
:10162000FEF7DBFD10BD0000003801401C02002069
:1016300010B51C481C4908604FF416504860002142
:1016400019488160C16001610C2141610021816103
:10165000C161FFF799FE08B1FEF7BFFD00201349F5
:1016600081F802024FF480711148FEF796FD4FF4A5
:1016700080710E48401CFEF790FD00200B4981F858
:101680000302084690F8012190F80101401C0B4626
:1016900083F80101481C111801220348FFF734FFA9
:1016A00010BD000000480040640200201800002027
:1016B0001A01002000BFFEE700BFFEE770470000F0
:1016C00008B508490968C9084FF47A72B1FBF2F10C
:1016D0004143009100BF00BF00994A1E00920029BB
:1016E000F9D108BD10000020704710B5FFF72EF8A3
:1016F00010BD00B58FB0282105A8FEF74EFD1421BE
:101700006846FEF74AFD012005900004069000207F
:1017100007900120099002200C90C1030D914FF415
:10172000E0110E9105A8FFF707FA08B1FEF755FD85
:101730000F20009002200190002002904FF4806062
:1017400003900020049002216846FFF7D1F808B109
:10175000FEF743FD0FB000BD704770B505466C6ADB
:101760000020E085E0842046FFF733FC70BD00BF19
:1017700000BF02680C3252E8002F22F49071026818
:101780000C3242E80013002BF3D100BF00BF00BFB2
:101790000268143252E8002F22F00101026814326C
:1017A00042E80013002BF3D100BF016B01290ED1D9
:1017B00000BF00BF02680C3252E8002F22F0100177
:1017C00002680C3242E80013002BF3D100BF202145
:1017D00080F8421000210163704710B5044620686C
:1017E000C06820F040002168C860202084F84100D3
:1017F0002046FFF7B5FE002010BDF8B5044694F86A
:101800004200222875D1A068B0F5805F0CD1206914
:1018100050B90025A66A20684068C0F308003080EF
:10182000A06A801CA06215E0A56A0026A068B0F539
:10183000805F03D0A06828B9206918B92068406883
:10184000287004E02068406800F07F002870A06ADB
:10185000401CA062E08D401E80B2E085002846D189
:101860002068C06820F020002168C8602068C06837
:1018700020F480702168C8602068406920F0010071
:1018800021684861202084F8420000206063206BBA
:10189000012826D10020206300BF00BF21680C3141
:1018A00051E8001F21F0100021680C3141E80002CE
:1018B000002AF3D100BF2068006800F01000102853
:1018C0000AD100BF002000902068006800902068C6
:1018D0004068009000BF00BFA18D2046FFF778FB55
:1018E00002E02046FFF726FE0020F8BD01E00020C0
:1018F000FBE70220F9E7000070B50446216809699A
:1019000021F44051E2681143226811612269A16803
:101910001143626941EA02052168C96841F20C621B
:10192000914329432268D1602168496921F44071BB
:10193000A2691143226851612D4A2168914202D166
:10194000FFF7B2F801E0FFF79FF800EBC00101EBF1
:10195000001162689200B1FBF2F100EBC00202EBF1
:10196000001263689B00B2FBF3F26423B2FBF3F254
:1019700002EBC20303EB0212A1EB8201322202EB63
:1019800001116422B1FBF2F101F0F00100EBC002A1
:1019900002EB001263689B00B2FBF3F26423B2FB1C
:1019A000F3F201EB021200EBC00101EB00116368DE
:1019B0009B00B1FBF3F100EBC00303EB001366687F
:1019C000B600B3FBF6F36426B3FBF6F303EBC306F2
:1019D00006EB0313A1EB8301322303EB0111642314
:1019E000B1FBF3F101F00F0111442268916070BD69
:1019F0000038014010B5034699629A85DA850020C7
:101A00005864222083F84200186928B11868C06819
:101A100040F480701C68E0601868406940F0010084
:101A20001C6860611868C06840F020001C68E060B5
:101A3000002010BD014691F84100212828D1886876
:101A4000B0F5805F0BD1086948B90A6A1088C0F305
:101A500008000B685860086A801C086205E00B6A81
:101A6000581C086218780B685860C88C401E80B2F9
:101A7000C88458B90868C06820F080000B68D86036
:101A80000868C06840F040000B68D86000207047CC
:101A90000220FCE710B50248FFF7E2FA10BD000093
:101AA0006402002000BFFEE70FB4054B10B503A988
:101AB000044A029800F033F810BC5DF814FB0000F3
:101AC000F51B00081400002002480068C0F3022043
:101AD000704700000CED00E010B5002804DB0A0799
:101AE000130E054A135406E00A07140E034A00F0C9
:101AF0000F031B1FD45410BD00E400E018ED00E0FC
:101B000002E008C8121F08C1002AFAD170477047C6
:101B1000002001E001C1121F002AFBD170472DE90E
:101B2000F84F9946924688460546002706E0252844
:101B30000AD051464A4690476D1C7F1C28780028E1
:101B4000F5D13846BDE8F88F002315F8011F184677
:101B50002E2915D115F8011F04232A290DD06FF065
:101B60002F022978A1F13004092C09D800EB80005C
:101B700002EB400008446D1CF3E758F8040B6D1CA1
:101B80002A78002ADDD0632A07D0732A0FD01046A6
:101B900051464A4690477F1C2AE018F8042B8DF8DE
:101BA000002000218DF801106E46012103E058F855
:101BB000046B4FF0FF315A074FF0000401D409E0E5
:101BC000641C84420BDA8C42FADB325D002AF7D1C6
:101BD00005E0641C8C42FCDB305D0028F9D1274411
:101BE00004E016F8010B51464A469047641EF8D2AD
:101BF0006D1CA3E700BF054A126802F08002002AAC
:101C0000F9D0024A121D10607047000000380140F0
:101C100008B5FEF7A7FDFFF76CFDFFF7A5FCFFF782
:101C200007FDFFF7E9FC012219491A48FFF76CFC90
:101C300000BF002000901748006800680090154819
:101C400000684068009000BF00BF12480068C0688C
:101C500040F010000F490968C86017E00E4890F87E
:101C6000030298B1002405E00C48015D0CA0FFF7C9
:101C70001BFF641C084890F80202A042F4DC00201C
:101C8000054981F8030207A0FFF70EFFE6E7000011
:101C90000000002064020020180000201A0100202B
:101CA000256300000D0A0000020304050607080969
:101CB0000A0B0C0D0E0F10100102000000000000B6
:101CC00000000102030406070809000000000102E9
:101CD00003040000F41C00080000002018000000AD
:101CE000001B00080C1D00081800002098060000CA
:101CF000101B0008000000000000000010000000A1
:0C1D0000010000000024F40000000000BE
:0400000508000131BD
:00000001FF
